:020000040800F2
:1000000000500020A16C0008F1100008F310000857
:10001000F5100008F7100008F910000800000000B3
:10002000000000000000000000000000B1600008B7
:10003000FB100008000000005161000895610008F5
:10004000E96C0008E96C0008E96C0008E96C00083C
:10005000E96C0008E96C0008E96C0008E96C00082C
:10006000E96C0008E96C0008E96C0008E96C00081C
:10007000E96C0008E96C0008E96C0008E96C00080C
:10008000E96C0008E96C0008E96C0008E96C0008FC
:10009000E96C0008E96C0008E96C0008E96C0008EC
:1000A000E96C0008FD100008E96C0008E96C000824
:1000B000E96C0008E96C0008E96C00080D11000803
:1000C000E96C0008E96C0008E96C0008E96C0008BC
:1000D000E96C00081D110008E96C0008E96C0008D3
:1000E0002D110008E96C0008E96C00080000000010
:1000F0000000000000000000000000000000000000
:0C01000000000000000000005FF808F1A3
:1001100010B5054C237833B9044B13B10448AFF341
:1001200000800123237010BD0001002000000000AA
:10013000D078000808B5034B1BB103490348AFF35F
:10014000008008BD0000000004010020D0780008F5
:10015000034613F8012B002AFBD1181A0138704707
:1001600081F0004102E000BF83F0004330B54FEA68
:1001700041044FEA430594EA050F08BF90EA020FD5
:100180001FBF54EA000C55EA020C7FEA645C7FEA68
:10019000655C00F0E2804FEA5454D4EB5555B8BF8B
:1001A0006D420CDD2C4480EA020281EA030382EAFC
:1001B000000083EA010180EA020281EA0303362D8E
:1001C00088BF30BD11F0004F4FEA01314FF4801C61
:1001D0004CEA113102D0404261EB410113F0004F73
:1001E0004FEA03334CEA133302D0524263EB43032A
:1001F00094EA050F00F0A780A4F10104D5F1200EC8
:100200000DDB02FA0EFC22FA05F2801841F1000122
:1002100003FA0EF2801843FA05F359410EE0A5F1F6
:1002200020050EF1200E012A03FA0EFC28BF4CF027
:10023000020C43FA05F3C01851EBE37101F00045DD
:1002400007D54FF0000EDCF1000C7EEB00006EEBEA
:100250000101B1F5801F1BD3B1F5001F0CD3490874
:100260005FEA30004FEA3C0C04F101044FEA4452CB
:1002700012F5800F80F09A80BCF1004F08BF5FEA52
:10028000500C50F1000041EB045141EA050130BD32
:100290005FEA4C0C404141EB0101013C28BFB1F544
:1002A000801FE9D291F0000F04BF01460020B1FA8F
:1002B00081F308BF2033A3F10B03B3F120020CDA62
:1002C0000C3208DD02F1140CC2F10C0201FA0CF040
:1002D00021FA02F10CE002F11402D8BFC2F1200CA5
:1002E00001FA02F120FA0CFCDCBF41EA0C0190405B
:1002F000E41AA2BF01EB0451294330BD6FEA0404A4
:100300001F3C1CDA0C340EDC04F11404C4F120028E
:1003100020FA04F001FA02F340EA030021FA04F3A0
:1003200045EA030130BDC4F10C04C4F1200220FAF7
:1003300002F001FA04F340EA0300294630BD21FA35
:1003400004F0294630BD94F0000F83F4801306BFFB
:1003500081F480110134013D4EE77FEA645C18BFEF
:100360007FEA655C29D094EA050F08BF90EA020F86
:1003700005D054EA000C04BF1946104630BD91EA7E
:10038000030F1EBF0021002030BD5FEA545C05D181
:100390004000494128BF41F0004130BD14F58004C0
:1003A0003CBF01F5801130BD01F0004545F0FE4134
:1003B00041F470014FF0000030BD7FEA645C1ABF69
:1003C000194610467FEA655C1CBF0B46024650EAA0
:1003D000013406BF52EA033591EA030F41F40021CC
:1003E00030BD00BF90F0000F04BF0021704730B552
:1003F0004FF4806404F132044FF000054FF0000127
:1004000050E700BF90F0000F04BF0021704730B5E7
:100410004FF4806404F1320410F0004548BF4042BC
:100420004FF000013EE700BF42004FEAE2014FEA11
:1004300031014FEA02701FBF12F07F4393F07F4FEC
:1004400081F06051704732F07F4208BF704793F0EF
:100450007F4F04BF41F40021704730B54FF4607402
:1004600001F0004521F000411CE700BF50EA010205
:1004700008BF704730B54FF000050AE050EA0102AE
:1004800008BF704730B511F0004502D5404261EB1E
:1004900041014FF4806404F132045FEA915C3FF45F
:1004A000D8AE4FF003025FEADC0C18BF03325FEAFC
:1004B000DC0C18BF033202EBDC02C2F1200300FAAD
:1004C00003FC20FA02F001FA03FE40EA0E0021FAD2
:1004D00002F11444BDE600BF70B54FF0FF0C4CF4C0
:1004E000E06C1CEA11541DBF1CEA135594EA0C0F72
:1004F00095EA0C0F00F0DEF82C4481EA030621EAAD
:100500004C5123EA4C5350EA013518BF52EA0335E7
:1005100041F4801143F4801338D0A0FB02CE4FF099
:100520000005E1FB02E506F00042E0FB03E54FF0C9
:100530000006E1FB03569CF0000F18BF4EF0010EC1
:10054000A4F1FF04B6F5007F64F5407404D25FEABD
:100550004E0E6D4146EB060642EAC62141EA555170
:100560004FEAC52040EA5E504FEACE2EB4F1FD0CB2
:1005700088BFBCF5E06F1ED8BEF1004F08BF5FEA30
:10058000500E50F1000041EB045170BD06F00046E2
:1005900046EA010140EA020081EA0301B4EB5C048F
:1005A000C2BFD4EB0C0541EA045170BD41F4801187
:1005B0004FF0000E013C00F3AB8014F1360FDEBFAC
:1005C000002001F0004170BDC4F10004203C35DA88
:1005D0000C341BDC04F11404C4F1200500FA05F30B
:1005E00020FA04F001FA05F240EA020001F00042AC
:1005F00021F0004110EBD37021FA04F642EB060122
:100600005EEA430E08BF20EAD37070BDC4F10C044B
:10061000C4F1200500FA04F320FA05F001FA04F20F
:1006200040EA020001F0004110EBD37041F10001FB
:100630005EEA430E08BF20EAD37070BDC4F1200506
:1006400000FA05F24EEA020E20FA04F301FA05F26E
:1006500043EA020321FA04F001F0004121FA04F216
:1006600020EA020000EBD3705EEA430E08BF20EAE6
:10067000D37070BD94F0000F0FD101F00046400020
:1006800041EB010111F4801F08BF013CF7D041EAA2
:10069000060195F0000F18BF704703F000465200A6
:1006A00043EB030313F4801F08BF013DF7D043EA77
:1006B0000603704794EA0C0F0CEA135518BF95EA2D
:1006C0000C0F0CD050EA410618BF52EA4306D1D1B4
:1006D00081EA030101F000414FF0000070BD50EAD3
:1006E000410606BF1046194652EA430619D094EA5D
:1006F0000C0F02D150EA013613D195EA0C0F05D147
:1007000052EA03361CBF104619460AD181EA03019A
:1007100001F0004141F0FE4141F470014FF0000052
:1007200070BD41F0FE4141F4780170BD70B54FF0ED
:10073000FF0C4CF4E06C1CEA11541DBF1CEA13556D
:1007400094EA0C0F95EA0C0F00F0A7F8A4EB05044F
:1007500081EA030E52EA03354FEA013100F0888046
:100760004FEA03334FF0805545EA131343EA12630F
:100770004FEA022245EA111545EA10654FEA0026C4
:100780000EF000419D4208BF964244F1FD0404F57D
:10079000407402D25B084FEA3202B61A65EB0305D9
:1007A0005B084FEA32024FF480104FF4002CB6EB96
:1007B000020E75EB030E22BFB61A754640EA0C0016
:1007C0005B084FEA3202B6EB020E75EB030E22BF56
:1007D000B61A754640EA5C005B084FEA3202B6EB97
:1007E000020E75EB030E22BFB61A754640EA9C0056
:1007F0005B084FEA3202B6EB020E75EB030E22BF26
:10080000B61A754640EADC0055EA060E18D04FEAE3
:10081000051545EA16754FEA06164FEAC30343EA83
:1008200052734FEAC2025FEA1C1CC0D111F4801F50
:100830000BD141EA00014FF000004FF0004CB6E749
:1008400011F4801F04BF01430020B4F1FD0C88BFE8
:10085000BCF5E06F3FF6AFAEB5EB030C04BFB6EBF3
:10086000020C5FEA500C50F1000041EB045170BDE6
:100870000EF0004E4EEA113114EB5C04C2BFD4EB13
:100880000C0541EA045170BD41F480114FF0000E97
:10089000013C90E645EA060E8DE60CEA135594EA13
:1008A0000C0F08BF95EA0C0F3FF43BAF94EA0C0F16
:1008B0000AD150EA01347FF434AF95EA0C0F7FF48B
:1008C00025AF104619462CE795EA0C0F06D152EADF
:1008D00003353FF4FDAE1046194622E750EA4106C3
:1008E00018BF52EA43067FF4C5AE50EA41047FF4D4
:1008F0000DAF52EA43057FF4EBAE12E74FF0FF3C39
:1009000006E000BF4FF0010C02E000BF4FF0010C09
:100910004DF804CD4FEA410C7FEA6C5C4FEA430C82
:1009200018BF7FEA6C5C1BD001B050EA410C0CBFD1
:1009300052EA430C91EA030F02BF90EA020F002033
:10094000704710F1000F91EA030F58BF994208BF9A
:1009500090422CBFD8176FEAE37040F00100704757
:100960004FEA410C7FEA6C5C02D150EA013C07D1AE
:100970004FEA430C7FEA6C5CD6D152EA033CD3D0F9
:100980005DF8040B704700BF8446104662468C46F3
:100990001946634600E000BF01B5FFF7B7FF002826
:1009A00048BF10F1000F01BD4DF808EDFFF7F4FF4F
:1009B0000CBF012000205DF808FB00BF4DF808EDDA
:1009C000FFF7EAFF34BF012000205DF808FB00BFFD
:1009D0004DF808EDFFF7E0FF94BF012000205DF81F
:1009E00008FB00BF4DF808EDFFF7CEFF94BF0120D4
:1009F00000205DF808FB00BF4DF808EDFFF7C4FFCD
:100A000034BF012000205DF808FB00BF4FEA410C15
:100A10007FEA6C5C02D150EA013C0AD14FEA430CF8
:100A20007FEA6C5C02D152EA033C02D14FF0000035
:100A300070474FF0010070474FEA4102B2F1E043C6
:100A400024BFB3F5001CDCF1FE5C0DD901F0004CB5
:100A50004FEAC0024CEA5070B2F1004F40EB830005
:100A600008BF20F00100704711F0804F21D113F131
:100A70003872BCBF01F00040704741F480114FEA6A
:100A80005252C2F11802C2F1200C10FA0CF320FAF3
:100A900002F018BF40F001004FEAC1234FEAD32310
:100AA00003FA0CFC40EA0C0023FA02F34FEA43037A
:100AB000CCE77FEA625307D150EA01331EBF4FF003
:100AC000FE4040F44000704701F0004040F0FE401E
:100AD00040F40000704700BF80F0004002E000BF1B
:100AE00081F0004142001FBF5FEA410392EA030F19
:100AF0007FEA226C7FEA236C6AD04FEA1262D2EB63
:100B00001363C1BFD218414048404140B8BF5B4267
:100B1000192B88BF704710F0004F40F4000020F000
:100B20007F4018BF404211F0004F41F4000121F016
:100B30007F4118BF494292EA030F3FD0A2F1010260
:100B400041FA03FC10EB0C00C3F1200301FA03F19E
:100B500000F0004302D5494260EB4000B0F5000FC1
:100B600013D3B0F1807F06D340084FEA310102F180
:100B70000102FE2A51D2B1F1004F40EBC25008BF32
:100B800020F0010040EA03007047490040EB0000FC
:100B9000013A28BFB0F5000FEDD2B0FA80FCACF1FD
:100BA000080CB2EB0C0200FA0CF0AABF00EBC2502A
:100BB00052421843BCBFD0401843704792F0000F18
:100BC00081F4000106BF80F400000132013BB5E76B
:100BD0004FEA41037FEA226C18BF7FEA236C21D0E1
:100BE00092EA030F04D092F0000F08BF0846704746
:100BF00090EA010F1CBF0020704712F07F4F04D114
:100C0000400028BF40F00040704712F100723CBF26
:100C100000F50000704700F0004343F0FE4040F450
:100C2000000070477FEA226216BF08467FEA23630E
:100C30000146420206BF5FEA412390EA010F40F4F9
:100C4000800070474FF0000304E000BF10F0004345
:100C500048BF40425FEA000C08BF704743F096432C
:100C600001464FF000001CE050EA010208BF704747
:100C70004FF000030AE000BF50EA010208BF7047CE
:100C800011F0004302D5404261EB41015FEA010CE3
:100C900002BF84460146002043F0B64308BFA3F1DB
:100CA0008053A3F50003BCFA8CF2083AA3EBC253BD
:100CB00010DB01FA02FC634400FA02FCC2F12002DC
:100CC000BCF1004F20FA02F243EB020008BF20F013
:100CD0000100704702F1200201FA02FCC2F1200279
:100CE00050EA4C0021FA02F243EB020008BF20EA6E
:100CF000DC7070474FF0FF3C06E000BF4FF0010C86
:100D000002E000BF4FF0010C4DF804CD4FEA400265
:100D10004FEA41037FEA226C18BF7FEA236C11D0AF
:100D200001B052EA530C18BF90EA010F58BFB2EB62
:100D3000030088BFC81738BF6FEAE17018BF40F0E2
:100D4000010070477FEA226C02D15FEA402C05D196
:100D50007FEA236CE4D15FEA412CE1D05DF8040B1B
:100D6000704700BF844608466146FFE70FB5FFF7AE
:100D7000C9FF002848BF10F1000F0FBD4DF808ED66
:100D8000FFF7F4FF0CBF012000205DF808FB00BF57
:100D90004DF808EDFFF7EAFF34BF012000205DF8B1
:100DA00008FB00BF4DF808EDFFF7E0FF94BF0120FE
:100DB00000205DF808FB00BF4DF808EDFFF7D2FFFB
:100DC00094BF012000205DF808FB00BF4DF808ED3E
:100DD000FFF7C8FF34BF012000205DF808FB00BF0B
:100DE00008B5034B834200D008BD05F075FCFBE756
:100DF0002802002008B50268034B9A4200D008BDC3
:100E000001F084FEFBE700BF002C014072B6FEE754
:100E100000B591B02822002106A805F099FF002313
:100E200001930293039304930593092306934FF4CC
:100E30008033079301220A920C9202220D920E93A4
:100E40004FF4E0130F9306A801F088FE80B90F233A
:100E5000019302210291002303934FF480620492D4
:100E6000059301A802F0BAF820B911B05DF804FBAF
:100E7000FFF7CCFFFFF7CAFF08B501F035FEFFF71B
:100E8000C7FF00F00DF800F07DF800F0D3F803F094
:100E900095FA04F035FE03F043FA04F053FEFEE742
:100EA0002DE9F04188B00024049405940694079439
:100EB0002F4B9A6942F010029A619A6902F010026F
:100EC0000092009A9A6942F020029A619A6902F0AF
:100ED00020020192019A9A6942F008029A619A6985
:100EE00002F008020292029A9A6942F004029A61A0
:100EF0009B6903F004030393039BDFF87880224689
:100F00004FF40051404602F07CFA1B4E22464FF44B
:100F10008071304602F075FA4FF4005304930125B6
:100F2000059506950227079704A9404602F050F957
:100F30004FF480630493114B0593069504A9104860
:100F400002F046F94FF480730493059506940797D1
:100F500004A9304602F03CF922460521282002F07F
:100F6000F1FA282002F026FB08B0BDE8F08100BFAE
:100F70000010024000100140000801400000211054
:100F8000000C014008B50B480B4B03600B4B436052
:100F900000238360C3604FF4804202614361836138
:100FA000C361036200F006FD00B908BDFFF72EFF24
:100FB000FBE700BFD401002000540040A0860100E0
:100FC00010B586B00023029303930493059302683F
:100FD000154B9A4201D006B010BD144CA36943F0E2
:100FE0000803A361A36903F008030093009BC023D7
:100FF0000293122303930323059302A90C4802F0E2
:10100000E7F8E36943F40013E361E36903F40013D1
:101010000193019B002205211F2002F093FA1F205B
:1010200002F0C8FAD7E700BF0054004000100240A9
:10103000000C014008B50A480A4B03604FF41653F0
:10104000436000238360C36003610C2242618361BB
:10105000C36102F0B1FC00B908BDFFF7D7FEFBE7A2
:10106000280200200038014030B587B000230293E9
:1010700003930493059302681B4B9A4201D007B077
:1010800030BD03F558439A6942F480429A619A69E7
:1010900002F480420092009A9A6942F004029A6136
:1010A0009B6903F004030193019B4FF400730293C7
:1010B00002230393032305930C4D02A9284602F053
:1010C00087F84FF48063029300240394049402A9E8
:1010D000284602F07DF822460521252002F032FA4A
:1010E000252002F067FACAE70038014000080140F5
:1010F000FEE7FEE7FEE7FEE7FEE7704708B50248B9
:1011000002F0A0FA08BD00BFEC02002008B50248BA
:1011100001F01AFC08BD00BFD401002008B5024848
:1011200002F022FD08BD00BF2802002008B54FF4E0
:10113000806002F075F908BD00B583B0114B9A6963
:1011400042F001029A619A6902F001020092009A4B
:10115000DA6942F08052DA61DB6903F0805301936F
:10116000019B00220F216FF0010002F0EBF9064A0B
:10117000536823F0E06343F00073536003B05DF8FD
:1011800004FB00BF001002400000014090F83E3018
:10119000DBB2402B10D00369B3F5804F1BD0036D39
:1011A000002B39D1436CC3F3C813026803F0060364
:1011B00043F0F00313617047036D2BB9436C026871
:1011C00003F0FE0313617047436C026843F00103B0
:1011D000DBB21361704790F83D30DBB2212B0FD0AA
:1011E000436C026843F00103DBB21361436B6BB1E4
:1011F0009B6A5BB10268536843F4006353607047B5
:10120000436C026803F0FE031361EFE7836B33B1B5
:101210009B6A002BEED102E0036D012B00D07047DA
:10122000436CC3F3C813026803F0060343F0F103F1
:101230001361F4E7436C0268DBB21361436B3BB1AB
:101240009B6A2BB10268536843F400635360704794
:10125000836B002BFBD09B6A002BF3D1F7E710B414
:101260008DB090F83E30DAB2C16A046B90F83D3030
:10127000DBB2222B0AD000230B9303685A690B922E
:101280009B690B930B9B0DB010BC7047036D0BB9A2
:10129000402A17D0036D1BB90369B3F5404F19D02D
:1012A000438D9BB2002B25D1039303685A690392A7
:1012B0009A690392039A1A6842F400721A60002332
:1012C0000365E0E7019303685A6901929B69019302
:1012D000019BD8E70023029303685A6902929A6936
:1012E0000292029A1A6842F480721A60036D013306
:1012F0000365C8E7438D9BB2012B25D0438D9BB27C
:10130000022B7BD00268136843F480631360036888
:101310005A6812F4006F0ED011F5803F07D00129F2
:1013200005D0082903D0102901D0202903D15A68FB
:1013300042F480525A6000230A9303685A690A9261
:101340009B690A930A9BBAE711F5803F11D00829DF
:1013500034D0202932D0122C2ED0042940D002299A
:101360003ED010293CD00268136823F480631360D8
:101370003BE00268136823F48063136003685A68D3
:1013800012F4006F0CD01A6822F480621A600023F5
:10139000049303685A6904929B690493049B8EE743
:1013A000002205925A6905929A690592059A1A686F
:1013B00042F400721A6082E70129CED002681368F5
:1013C00023F4806313600023079303685A6907922C
:1013D0009A690792079A1A6842F400721A606EE7D7
:1013E0000268136843F48063136000230693036864
:1013F0005A6906929B690693069B60E7042915D0FB
:10140000022913D0102911D00268136843F4006335
:1014100013600023089303685A6908929A69089236
:10142000089A1A6822F480621A600CE00268136855
:1014300043F4806313600023099303685A69099297
:101440009B690993099B03685A6812F4006F3FF483
:1014500036AF11F5803F08D0012906D0082904D005
:10146000102902D020297FF42AAF5A6842F4805212
:101470005A6024E7438D9BB25BB1426A03681278DD
:101480001A61436A01334362438D9BB2013B9BB2B5
:1014900043857047438D9BB25BB103681A69436A09
:1014A0001A70436A01334362438D9BB2013B9BB286
:1014B0004385704782B0002301930E4B1B68DB0805
:1014C0000D4AA2FB03231B0A03EB83030193019B39
:1014D000013B0193019B33B103681B6813F4007F48
:1014E000F5D1002004E0036C43F0200303640120E5
:1014F00002B070470800002089B5F81403685A69E3
:1015000012F4806F01D1002070476FF480625A613D
:1015100000230363202280F83D2080F83E30026CD7
:1015200042F00402026480F83C3001207047C36A34
:10153000B3F52A0F04D0C36AB3F12A4F03D0704722
:101540000123C36270470823C362F8E72DE9F04125
:1015500007460D4690461E4624E001F0E3FA069B3E
:10156000C01AB04200D8EEB900233B63202287F8AE
:101570003D2087F83E303A6C42F020023A6487F80A
:101580003C3001201EE03B689C6925EA040C1FFAF0
:101590008CFCBCFA8CFC4FEA5C1CE04511D1B6F126
:1015A000FF3FDAD1C5F30743012BECD13B685B6900
:1015B00025EA030C1FFA8CFCBCFA8CFC4FEA5C1C7D
:1015C000EBE70020BDE8F0812DE9F04105460E462D
:1015D000174698463DE01A6842F400721A602B687C
:1015E0006FF480625A6100232B63202285F83D202E
:1015F00085F83E302A6C42F004022A6485F83C30BB
:10160000012034E001F08EFAA0EB0800B84200D8C7
:10161000FFB900232B63202285F83D2085F83E305A
:101620002A6C42F020022A6485F83C3001201EE03A
:101630002B689C6926EA0404A4B2003C18BF01246C
:10164000A4B12B685A6912F4806FC4D1B7F1FF3F7F
:10165000D8D1C6F30743012BEAD12B685C6926EA8F
:101660000404A4B2003C18BF0124E9E70020BDE84F
:10167000F08170B504460D46164623685B6913F089
:10168000800F1CD12046FFF739FFD0B9B5F1FF3FDD
:10169000F3D001F047FA801BA84201D8002DECD10D
:1016A00000232363202284F83D2084F83E30226CFE
:1016B00042F02002226484F83C30012000E0002047
:1016C00070BD0120FCE700002DE9F04385B0044621
:1016D0000D4691461F46DDF830800D9E036819685F
:1016E00041F4807119600096434600224FF00111C9
:1016F000FFF72CFF60B9236805F0FE051D61334636
:10170000424626492046FFF75FFF68B1012008E006
:1017100023681B6813F4807F02D04FF400732364A6
:10172000032005B0BDE8F0830023039323685A69C2
:1017300003929B690393039B324641462046FFF781
:1017400098FF30B9012F0FD123685FFA89F61E6127
:10175000E7E7236C042B01D00120E2E7226813683D
:1017600043F400731360F7E723684FEA19221A6104
:10177000324641462046FFF77CFF20B923685FFAD6
:1017800089F61E61CDE7236C042B01D00120C8E748
:101790002268136843F400731360F7E70200010046
:1017A0002DE9F04784B004460D46164699460C9F35
:1017B000DDF834800268136843F4806313600368C3
:1017C000196841F480711960CDF800803B46002211
:1017D0004FF00111FFF7BAFE70B95FFA85FA23687E
:1017E00005F0FE051D6143463A4641492046FFF794
:1017F000EBFE68B1012008E023681B6813F4807FCA
:1018000002D04FF400732364032004B0BDE8F087D6
:101810000023039323685A6903929B690393039BF4
:10182000424639462046FFF724FF80B9B9F1010F3F
:1018300018D12368F6B21E61424639462046FFF7AA
:1018400018FF68B3236C042B24D00120DDE7236C40
:10185000042B01D00120D8E72268136843F40073F9
:101860001360F7E72368320A1A6142463946204678
:10187000FFF7FFFE18B92368F6B21E61DCE7236CA0
:10188000042B01D00120C0E72268136843F40073E1
:101890001360F7E72268136843F400731360D4E71A
:1018A0002268136843F480731360CDF800803B46D0
:1018B00000224FF001112046FFF748FE68B9226868
:1018C0004AF00103136143463A4609492046FFF7AF
:1018D0007BFE002899D0012097E723681B6813F44A
:1018E000807F02D04FF40073236403208DE700BF94
:1018F0000200010070B504460D46164623685B6978
:1019000013F0040F1CD12046FFF7F8FDD0B9B5F154
:10191000FF3FF3D001F006F9801BA84201D8002D4B
:10192000ECD100232363202284F83D2084F83E304C
:10193000226C42F02002226484F83C30012000E056
:10194000002070BD0120FCE770B505460C46164628
:101950002B68596911F0400F29D1596911F0100F06
:1019600015D101F0DFF8801BA04201D8002CEFD187
:1019700000232B63202285F83D2085F83E302A6C19
:1019800042F020022A6485F83C30012070BD6FF0DF
:1019900010025A6100232B63202285F83D2085F830
:1019A0003E302A6C2A6485F83C300120EEE70020A6
:1019B000ECE70000002800F0CC8070B5044690F8F9
:1019C0003D30002B77D0242384F83D302268136803
:1019D00023F0010313602268136843F4004313608B
:1019E0002268136823F40043136001F0B3FB6268BC
:1019F0005A4B9A4264D85A4B98428CBF0023012319
:101A0000002B40F0A8805749A1FB00318B0C2568C2
:101A10006A6822F03F0242EA91426A6021680A6ADB
:101A200022F03F0266684D4DAE424FD8013313435A
:101A30000B622168CA6922F44F4222F0FF026668F5
:101A4000464B9E424CD8431E7600B3FBF6F301335F
:101A500040F6FC70034278D0C3F30B031343CB6111
:101A600021680B6823F0C003E269206A0243134334
:101A70000B6021688B6823F4034323F0FF03226982
:101A8000E068024313438B602168CB6823F0FF03B7
:101A90006269A06902431343CB602268136843F074
:101AA0000103136000202064202384F83D3020636C
:101AB00084F83E0070BD80F83C30FFF781FA82E781
:101AC000294B98428CBF0023012399E74FF4967568
:101AD00005FB03F3254DA5FB03539B090133A6E743
:101AE000A368BBB9451E06EB460CB5FBFCF50135FA
:101AF000C5F30B05B5FA85F56D0945BBC3B90138CA
:101B000006EB4603B0FBF3F30133C3F30B0343F4DB
:101B10000043A3E7451E06EB860C0CEB8C0CB5FBD3
:101B2000FCF50135C5F30B05B5FA85F56D09E4E75C
:101B3000013806EB860303EB8303B0FBF3F30133B9
:101B4000C3F30B0343F4404388E7042386E70123F0
:101B500084E7012070470120ACE700BFA0860100A8
:101B60007F841E0083DE1B43FF083D00D34D6210BF
:101B70002DE9F04383B004460F46904699460C9EEB
:101B800000F0D0FF054694F83D00C0B2202803D0F5
:101B9000022003B0BDE8F0830095192301224B49D0
:101BA0002046FFF7D3FC002840F0898094F83C30B1
:101BB000012B00F08680012384F83C3023681A68EA
:101BC00012F0010F03D11A6842F001021A60226874
:101BD000136823F400631360212384F83D3040230D
:101BE00084F83E30002323640A9B6362BDF82C30E6
:101BF0006385638D2385364BE362019500964B46E2
:101C0000424639462046FFF75FFD00285BD1238D11
:101C1000002B35D02A4631462046FFF72AFD20BB4F
:101C2000626A236812781A61626A531C6362218DAA
:101C3000013989B22185638D9BB2013B9BB26385DB
:101C40002368586910F0040FE1D00029DFD05278E2
:101C50001A61636A01336362238D013B2385638DBF
:101C60009BB2013B9BB26385D1E7236C042B01D06F
:101C700001208EE72268136843F400731360F7E7CE
:101C80002A4631462046FFF735FE50B1236C042B1F
:101C900001D001207DE72268136843F400731360CC
:101CA000F7E72268136843F400731360202384F875
:101CB0003D30002384F83E3084F83C3069E7022050
:101CC00067E7022065E7012063E700BF020010001C
:101CD0000000FFFF2DE9F04389B004460F4690460F
:101CE0009946129E0023079300F01CFF054694F8C6
:101CF0003D00C0B2202804D00227384609B0BDE814
:101D0000F08300951923012281492046FFF71EFC2C
:101D1000002840F0728194F83C30012B00F06F8174
:101D2000012384F83C3023681A6812F0010F03D1B4
:101D30001A6842F001021A602268136823F40063F3
:101D40001360222384F83D30402384F83E30002382
:101D50002364109B6362BDF844306385638D2385E3
:101D60006C4BE362019500964B464246394620464D
:101D7000FFF716FD0746002840F04381238D5BB92D
:101D8000039323685A6903929A690392039A1A6823
:101D900042F400721A60EDE0012B0FD0022B21D02B
:101DA0002268136843F4806313600023069323685A
:101DB0005A6906929B690693069BDBE022681368CA
:101DC00023F48063136072B60023049323685A6976
:101DD00004929A690492049A1A6842F400721A6092
:101DE00062B6C7E02268136843F40063136072B6FA
:101DF0000023059323685A6905929A690592059A0A
:101E00001A6822F480621A6062B6B3E02A4631464C
:101E10002046FFF799FD002840F0F58023681A69F5
:101E2000636A1A70636A01336362238D013B238501
:101E3000638D9BB2013B9BB263859BE0009533466B
:101E4000002235492046FFF781FB002840F0DF8063
:101E50002268136823F48063136072B623681A69DA
:101E6000636A1A70636A01336362238D013B2385C1
:101E7000638D9BB2013B9BB26385284B1B68DB08DB
:101E8000274AA2FB03231B0A03EB8303C3EBC30311
:101E90000793079B013B0793079B002B28D02368E0
:101EA0005A6912F0040FF4D01A6842F400721A60F2
:101EB00023681A69636A1A70636A01336362238D47
:101EC000013B2385638D9BB2013B9BB2638562B668
:101ED00023681A69636A1A70636A01336362238D27
:101EE000013B2385638D9BB2013B9BB2638541E03F
:101EF0002363202284F83D2084F83E30226C42F097
:101F00002002226462B684F83C300127F5E600BF67
:101F1000020010000000FFFF040001000800002084
:101F200089B5F8142A4631462046FFF70DFD0028F2
:101F30006FD123681A69636A1A70626A531C6362FC
:101F4000238D013B2385638D9BB2013B9BB263854F
:101F50002368596911F0040F0CD01B695370636A30
:101F600001336362238D013B2385638D9BB2013B6B
:101F70009BB26385238D002B36D0032BD2D8012B47
:101F80003FF444AF022B7FF459AF00953346002253
:101F900021492046FFF7DAFA002836D172B62268C6
:101FA000136843F40073136023681A69636A1A7034
:101FB000636A01336362238D013B2385638D9BB28A
:101FC000013B9BB2638562B623681A69636A1A7023
:101FD000636A01336362238D013B2385638D9BB26A
:101FE000013B9BB26385C5E7202384F83D30002385
:101FF00084F83E3084F83C307FE602277DE60227F5
:102000007BE6012779E6012777E6012775E60127B8
:1020100073E6012771E600BF0400010070477047B6
:10202000704708B590F83D30DAB2438D9BB283B16A
:10203000416A036809781961436A01334362438D39
:102040009BB2013B9BB24385438D9BB20BB9292ABE
:1020500000D008BD0268536823F4806353602123D5
:102060000363282380F83D30FFF7DAFFF1E770477C
:1020700008B590F83D30DAB2438D9BB283B1036866
:102080001969436A1970436A01334362438D9BB2F5
:10209000013B9BB24385438D9BB20BB92A2A00D0EA
:1020A00008BD0268536823F48063536022230363EE
:1020B000282380F83D30FFF7DAFFF1E7704700B5DD
:1020C00083B090F83D3003F02803282B0CD0002378
:1020D000019302685169019192690192019A80F815
:1020E0003C3003B05DF804FB0268536823F480635E
:1020F000536011F0040F0BD0002311F0800F09D1B1
:102100008289002180F83C101946FFF7D7FFE8E7E5
:102110000123F2E7028BF4E77047704708B5C26A03
:1021200090F83D30DBB2212B00D008BD438D9BB22F
:1021300063B1426A036812781A61436A01334362E9
:10214000438D9BB2013B9BB24385EEE7082A04D046
:10215000202A02D012F5803F19D10268536823F477
:10216000E06353600268136843F400731360002354
:102170000363202380F83D3090F83E30DBB2402BE3
:1021800015D0002380F83E30FFF748FFCDE7026806
:10219000536823F4E063536011230363002380F842
:1021A0003E30202380F83D30FFF738FFBDE70023A5
:1021B00080F83E30FFF7B1FFB7E708B590F83D3043
:1021C000026D9AB9C36C012B08D0836CC3F307234B
:1021D00002681361036D0133036508BD836C0268F7
:1021E000DBB21361036D02330365F6E7DBB2026D08
:1021F000012A23D0026D022AEFD1222B26D0428D54
:1022000092B20AB1212B2AD0428D92B2002AE4D197
:10221000212BE2D10268536823F4E0635360026823
:10222000136843F40073136000230363202280F8D3
:102230003D2080F83E30FFF770FFCEE7836C0268E8
:10224000DBB21361036D01330365C6E702681368EF
:1022500043F480731360036D01330365BDE7426A85
:10226000036812781A61436A01334362438D9BB25B
:10227000013B9BB24385B0E710B590F83D30DBB22F
:1022800090F83E20D2B2C46A018D09B9212B04D046
:10229000212B3BD0402A37D010BD082C04D0202C55
:1022A00002D014F5803F19D10268536823F4E0632B
:1022B00053600268136843F40073136000230363E0
:1022C000202380F83D3090F83E30DBB2402B15D013
:1022D000002380F83E30FFF7A1FEDDE70268536877
:1022E00023F4E063536011230363002380F83E303E
:1022F000202380F83D30FFF791FECDE7002380F8E2
:102300003E30FFF70AFFC7E7222BC5D1438D9BB2B2
:102310002BB90268536823F480635360BCE790F8DC
:102320003E30DBB2402B0CD0426A036812781A614F
:10233000436A01334362438D9BB2013B9BB24385A9
:10234000AAE7FFF73AFFA7E7704708B5C26A438DCF
:102350009BB2042B14D0438D9BB2032B22D0438D10
:102360009BB2022B39D003681A69436A1A70436A18
:1023700001334362438D9BB2013B9BB2438510E026
:102380000268536823F48063536003681A69436AE0
:102390001A70436A01334362438D9BB2013B9BB287
:1023A000438508BD01684B6823F480634B60042AB1
:1023B00006D0022A04D00268136823F480631360F5
:1023C00003681A69436A1A70436A01334362438D92
:1023D0009BB2013B9BB24385E3E7012A0BD0102A55
:1023E00009D0042A38D0022A36D00268136843F490
:1023F0000073136004E00268136823F480631360C1
:1024000003681A69436A1A70426A531C4362438D17
:102410009BB2013B9BB2438503681B695370436ABF
:1024200001334362438D9BB2013B9BB243850268FB
:10243000536823F440735360202380F83D3090F8B4
:102440003E30DBB2402B0DD0002380F83E3012230B
:102450000363FFF7E4FDA4E70268136843F48063B5
:102460001360CDE7002380F83E300363FFF76CFF75
:1024700097E7704790F83D30DBB2222B00D07047D1
:1024800010B50446438D9BB2032B16D903681A6915
:10249000436A1A70436A01334362438D9BB2013B26
:1024A0009BB24385438D9BB2032B00D010BD0268C5
:1024B000536823F480635360F8E7C26A022AF5D0B8
:1024C000012BF3D8FEF7F6FF00282ED122681368FF
:1024D00023F4806313602268536823F4E06353603D
:1024E00023681A69636A1A70636A01336362638DD1
:1024F0009BB2013B9BB26385202384F83D3094F866
:102500003E30DBB2402B08D0002384F83E3012234B
:1025100023632046FFF783FDC8E7002384F83E309D
:1025200023632046FFF710FFC0E72268536823F4B7
:10253000E063536023681A69636A1A70636A01333F
:102540006362638D9BB2013B9BB26385202384F859
:102550003D30002384F83E302046FFF78AFFA5E790
:102560007047000000B583B000230193406A90F8E3
:102570003D20D2B2324B1B68DB083249A1FB03136A
:102580001B0A03EB8303C3EBC3030193019B43B11A
:10259000019B013B019303681B6813F4007FF5D195
:1025A00003E0036C43F020030364436B0BB1002191
:1025B0009962836B0BB10021996201680B6823F467
:1025C00080630B6000234385436B0BB1002159638B
:1025D000836B0BB10021596301680B6823F0010381
:1025E0000B6090F83D30DBB2602B0ED002F0280279
:1025F000282A14D0202380F83D30002380F83E3074
:10260000FFF737FF03B05DF804FB202380F83D306F
:10261000002380F83E300364FFF7A2FFF2E7026870
:10262000136843F0010313600268136843F4806386
:10263000136000230363282380F83D30E0E700BFE8
:102640000800002089B5F81410B5044690F83D3014
:10265000DBB290F83E20D2B2102A35D0402A33D0D7
:1026600003F02802282A37D02268526812F4006F3B
:1026700007D1602B05D0202384F83D30002384F857
:102680003E300023236323685A6812F4006F47D05A
:102690005A6822F400625A60636B93F82120012A81
:1026A00020D0444A5A63606B00F0EAFE002849D00B
:1026B0002268136823F001031360202384F83D305F
:1026C000606B436B98473DE0222BC9D121680A68B3
:1026D00022F400620A60C3E700232363282384F8FE
:1026E0003D30D0E7A36B334A5A63A06B00F0C8FEBD
:1026F00040B323685A6912F0400F05D01A69636A23
:102700001A70636A013363622268136823F001035D
:102710001360202384F83D30A06B436B984711E091
:1027200094F83D20D2B2602A1FD05A6912F0400FAF
:1027300005D01A69636A1A70636A013363622046BE
:10274000FFF797FE236C13F00F0F04D02268536835
:1027500023F4E063536094F83D30DBB2226C12F056
:10276000040F01D0282B18D010BD202284F83D2062
:10277000002222645A6912F0400F05D01A69636A78
:102780001A70636A013363622268136823F00103DD
:1027900013602046FFF7E4FED4E7074BE362002313
:1027A0002363202284F83D2084F83E302046FFF742
:1027B000B3FCD9E7652500080000FFFF30B583B002
:1027C000044690F83D50EDB20268536823F4E0638C
:1027D00053600023019303685A6901921A6842F01A
:1027E00001021A60019B0268136823F4806313607E
:1027F00003685A6812F4006F38D0222D21D02A2D98
:102800001FD0426B1268526892B24285428D92B2DA
:102810001AB1026C42F0040202645A6822F40062A7
:102820005A60606B00F078FE01281FD0636B444A49
:102830005A63606B00F024FEC0B1606B436B984735
:1028400014E0A26B1268526892B26285628D92B2F5
:102850001AB1226C42F0040222645A6822F4006227
:102860005A60A06B00F058FE012842D1638D9BB2E4
:1028700033B323685A6912F0040F0AD01A69636AE5
:102880001A70636A01336362638D9BB2013B9BB232
:10289000638523685A6912F0400F0AD01A69636A87
:1028A0001A70636A01336362638D9BB2013B9BB212
:1028B0006385638D9BB21BB1236C43F004032364D7
:1028C000236C13BB2A2D25D094F83D30DBB2282B86
:1028D00029D0236B222B01D0222D19D10023236371
:1028E000202284F83D2084F83E302046FFF7BFFBCD
:1028F0000EE0A36B124A5A63A06B00F0C1FD0028E2
:10290000B4D0A06B436B9847B0E72046FFF79CFE1E
:1029100003B030BD00232363282384F83D302046D4
:10292000FFF7A5FBD0E7074BE362002323632022D8
:1029300084F83D2084F83E302046FFF7EDFBE7E7C2
:10294000652500080000FFFFF8B5044602685568D9
:10295000C66A90F83E30DBB290F83D10C8B2102B3A
:1029600013D0402B11D0236C002B7AD05369002157
:1029700013F0020F78D015F4007F75D0236C03B1EB
:1029800091692046FFF79BFBF8BDD2F818C051694A
:1029900011F0010705D1B6F52A0FF5D0B6F12A4F8F
:1029A000F2D017B115F4007F29D111F0080F02D031
:1029B00015F4007F2AD111F0020F02D015F4007F28
:1029C00028D11CF0040F31D0526812F4006FDBD113
:1029D00011F0800F05D015F4806F02D011F0040FB4
:1029E0001CD011F0040FCFD015F4007FCCD02128DB
:1029F00018D0402BC8D12046FFF7DFFBC4E72046A4
:102A0000FEF795FD2046FEF7C1FBBDE72046FEF729
:102A100011FCB9E72046FEF722FCB5E72046FFF798
:102A20002BFCB1E72046FFF779FBADE7536813F4C1
:102A3000006FA9D111F0400F05D015F4806F02D0BE
:102A400011F0040F09D011F0040F9DD015F4007F90
:102A50009AD02046FFF779FC96E72046FFF70AFD5B
:102A600092E79169536983E713F0100F02D015F4D0
:102A7000007F18D121281AD0292818D013F0400F30
:102A800005D015F4806F02D013F0040F28D013F096
:102A9000040F3FF479AF15F4007F3FF475AF204683
:102AA000FEF7F8FC70E72046FFF788FE6CE713F0AE
:102AB000800F05D015F4806F02D013F0040F0BD0F7
:102AC00013F0040F3FF460AF15F4007F3FF45CAFE8
:102AD0002046FEF7CFFC57E72046FFF7A2FA53E760
:102AE0002046FFF7C5FA4FE708B5074A136843F0D9
:102AF00010031360032000F013FD0F2001F072FC9F
:102B0000FEF71AFB002008BD00200240034A1168AE
:102B1000034B1B780B441360704700BF6C0200200E
:102B200000000020014B1868704700BF6C020020B5
:102B300082B0084B1B68084AA2FB03235B0A00FB18
:102B400003F3019300BF019B5A1E0192002BF9D1A0
:102B500002B0704708000020D34D6210002800F03A
:102B6000F18170B582B00446036813F0010F2CD0D8
:102B7000994B5B6803F00C03042B1DD0964B5B68EC
:102B800003F00C03082B12D06368B3F5803F41D0EB
:102B9000002B55D103F1804303F504331A6822F466
:102BA00080321A601A6822F480221A6037E08A4B59
:102BB0005B6813F4803FE7D0874B1B6813F4003F3A
:102BC00003D06368002B00F0BF81236813F0020F6D
:102BD00075D0814B5B6813F00C0F5FD07E4B5B6848
:102BE00003F00C03082B54D02369002B00F08A80DB
:102BF0007A4B01221A60FFF795FF0546764B1B685A
:102C000013F0020F75D1FFF78DFF401B0228F5D995
:102C100003209EE1704A136843F4803313606368B5
:102C200043B3FFF77FFF05466B4B1B6813F4003F70
:102C3000CBD1FFF777FF401B6428F5D9032088E14B
:102C4000B3F5A02F09D0644B1A6822F480321A60C1
:102C50001A6822F480221A60E1E703F18043A3F5A9
:102C60003C331A6842F480221A601A6842F48032B7
:102C70001A60D4E7FFF756FF0546574B1B6813F45D
:102C8000003FA2D0FFF74EFF401B6428F5D9032078
:102C90005FE1514B5B6813F4803FA5D14E4B1B683D
:102CA00013F0020F03D02369012B40F04F814A4AF1
:102CB000136823F0F803616943EAC10313602368D2
:102CC00013F0080F33D0A369002B5CD0434B0122D3
:102CD000C3F88024FFF726FF05463F4B5B6A13F0DD
:102CE000020F21D1FFF71EFF401B0228F5D9032058
:102CF0002FE1394A136823F0F803616943EAC103FD
:102D00001360DCE7354B00221A60FFF70BFF054626
:102D1000314B1B6813F0020FD1D0FFF703FF401BAC
:102D20000228F5D9032014E10120FFF701FF2368F1
:102D300013F0040F00F09680274BDB6913F0805FDF
:102D400034D1254BDA6942F08052DA61DB6903F055
:102D500080530193019B0125214B1B6813F4807F55
:102D600026D0E368012B3DD0002B53D103F18043E3
:102D700003F504331A6A22F001021A621A6A22F079
:102D800004021A6233E0154B0022C3F88024FFF7D7
:102D9000C9FE0546104B5B6A13F0020FC7D0FFF760
:102DA000C1FE401B0228F5D90320D2E00025D3E75D
:102DB0000B4A136843F480731360FFF7B3FE0646B3
:102DC000074B1B6813F4807FCBD1FFF7ABFE801B52
:102DD0006428F5D90320BCE0001002400000424204
:102DE000007000405F4A136A43F001031362E36816
:102DF00033B3FFF797FE06465A4B1B6A13F0020FD8
:102E00002FD1FFF78FFE801B41F288339842F3D910
:102E100003209EE0052B09D0524B1A6A22F00102D2
:102E20001A621A6A22F004021A62E0E74D4B1A6A2B
:102E300042F004021A621A6A42F001021A62D6E7EC
:102E4000FFF770FE0646474B1B6A13F0020F08D0CF
:102E5000FFF768FE801B41F288339842F3D90320C4
:102E600077E0E5B9E369002B72D03E4A526802F080
:102E70000C02082A56D0022B17D03B4B00221A66B0
:102E8000FFF750FE0446374B1B6813F0007F47D016
:102E9000FFF748FE001B0228F5D9032059E0314A0C
:102EA000D36923F08053D361DCE72F4B00221A66ED
:102EB000FFF738FE05462B4B1B6813F0007F06D04A
:102EC000FFF730FE401B0228F5D9032041E0236ABA
:102ED000B3F5803F1AD023494B6823F47413226A58
:102EE000606A024313434B601F4B01221A66FFF7CF
:102EF00019FE04461B4B1B6813F0007F0ED1FFF731
:102F000011FE001B0228F5D9032022E0154A536860
:102F100023F40033A1680B435360DCE7002018E082
:102F2000002016E0012B16D00E4B5B6803F48031B5
:102F3000226A914211D103F47013626A93420ED156
:102F4000002006E001207047012002E0012000E09F
:102F5000002002B070BD0120FBE70120F9E701204D
:102F6000F7E700BF001002400000424286B0174B56
:102F70000FCB0DF1180C0CE90F0040F20123ADF856
:102F80000430134B5B6803F00C02082A02D011488E
:102F900006B07047C3F3834218326A4412F8100C2B
:102FA00013F4803F0DD00A4B5B68C3F340431833E2
:102FB0006B4413F8143C074A02FB00F0B0FBF3F03B
:102FC000E6E7054B03FB00F0E2E700BF44790008A9
:102FD0000010024000127A0000093D00002800F0B5
:102FE000A08070B50D460446524B1B6803F00703E2
:102FF0008B420BD24F4A136823F007030B43136035
:10300000136803F007038B4240F08D80236813F0B0
:10301000020F17D013F0040F04D0474A536843F44B
:10302000E0635360236813F0080F04D0424A5368EA
:1030300043F460535360404A536823F0F003A1689F
:103040000B435360236813F0010F31D06368012BE9
:1030500020D0022B25D0384A126812F0020F64D01B
:1030600035494A6822F0030213434B60FFF75AFDCB
:103070000646314B5B6803F00C036268B3EB820FCA
:1030800016D0FFF74FFD801B41F288339842F0D9EC
:10309000032045E0284A126812F4003FE0D10120E5
:1030A0003EE0254A126812F0007FD9D1012037E0B6
:1030B000204B1B6803F00703AB420AD91D4A136873
:1030C00023F007032B431360136803F00703AB429D
:1030D0002DD1236813F0040F06D0174A536823F448
:1030E000E063E1680B435360236813F0080F07D0D7
:1030F000114A536823F46053216943EAC1035360C2
:10310000FFF734FF0C4B5B68C3F303130B4AD35C2C
:10311000D8400B4B18600B4B186801F063F9002086
:1031200070BD012070470120FAE70120F8E7012077
:10313000F6E700BF00200240001002405879000866
:103140000800002004000020014B1868704700BFF1
:103150000800002008B5FFF7F7FF044B5B68C3F3D6
:103160000223034AD35CD84008BD00BF00100240D0
:103170006879000808B5FFF7E7FF044B5B68C3F305
:10318000C223034AD35CD84008BD00BF00100240F0
:10319000687900080F2303600B4B5A6802F00302A2
:1031A00042605A6802F0F00282605A6802F4E062FB
:1031B000C2605B68DB0803F4E0630361034B1B68D8
:1031C00003F007030B60704700100240002002402C
:1031D00070B582B00024A446A6E0804DAA4210D06B
:1031E00007D97F4DAA420CD005F58035AA4208D0F8
:1031F00013E0A5F58015AA4203D005F57025AA4273
:1032000007D18A68002A58D0012A51D04361082486
:1032100003E0A5F58015AA42F3D0BEF1FF0F4ED80A
:103220000646BEF1FF0F4CD84FEA8C0233680F25DB
:10323000954023EA050304FA02F2134333604B6816
:1032400013F0805F6ED0674B9A6942F001029A6179
:103250009B6903F001030193019B4FEA9C02951CBB
:10326000614B53F825600CF003039D000F23AB4026
:1032700026EA03065D4B984229D003F58063984205
:1032800000F08E8003F58063984200F08B8003F598
:103290008063984219D004231AE0CC68BDE7CC685B
:1032A0000434BAE7CC680834B7E7CC680C34B4E728
:1032B00003610824B1E70024AFE70424ADE7061D4D
:1032C000AFE7ACF108029200B0E7032300E000236F
:1032D000AB4033430232444D45F822304B6813F47F
:1032E000803F61D0424A136843EA0E0313604B6883
:1032F00013F4003F5ED03E4A536843EA0E03536026
:103300004B6813F4801F5BD0394A936843EA0E037D
:1033100093604B6813F4001F58D0354AD36843EAD2
:103320000E03D3600CF1010C0A6832FA0CF353D08F
:10333000012303FA0CF302EA030E33EA0202F1D18D
:103340004A68122A3FF649AF122A3FF666AF01A536
:1033500055F822F0033200089B320008A53200081D
:10336000B73200081B3200081B3200081B3200086D
:103370001B3200081B3200081B3200081B320008F9
:103380001B3200081B3200081B3200081B320008E9
:103390001B3200081B3200089F320008AB320008C5
:1033A000012395E7022393E7114A136823EA0E03EA
:1033B00013609CE70E4A536823EA0E0353609FE7AD
:1033C0000B4A936823EA0E039360A2E7084AD36886
:1033D00023EA0E03D360A5E702B070BD00002210FF
:1033E00000003110001002400000014000080140C0
:1033F000000401408368194201D001207047002079
:1034000070470AB101617047090401617047C368E0
:1034100001EA030221EA030141EA02410161704726
:1034200008B5054B5B69034200D108BD024B5861EA
:1034300000F0A0FFF9E700BF0004014090F8213040
:10344000022B06D004238363002380F82030012060
:1034500070470268136823F00E0313600268136854
:1034600023F001031360036CC16B012202FA03F322
:103470004B6080F82120002380F8203018467047E8
:1034800008B590F82130022B03D004238363012078
:1034900008BD0268136823F00E0313600268136806
:1034A00023F0010313600368194A934214D01432C5
:1034B00093421FD0143293421ED0143293421ED036
:1034C000143293421ED01432934202D04FF08072D5
:1034D00003E04FF4801200E001220E4B5A600123FA
:1034E00080F82130002380F82030436B6BB198477F
:1034F0000020CDE71022F0E74FF48072EDE74FF4A3
:103500008052EAE74FF48032E7E70020C0E700BFCF
:10351000080002400000024090F8210070470000BF
:10352000074AD36823F4E0631B041B0C000200F479
:10353000E060034343F0BF6343F40033D36070475C
:1035400000ED00E000B5194BDB68C3F30223C3F1C3
:10355000070CBCF1040F28BF4FF0040C03F1040E5C
:10356000BEF1060F18D9033B4FF0FF3E0EFA0CFCDC
:1035700021EA0C0199400EFA03F322EA03031943EE
:1035800000280BDB0901C9B200F1604000F5614081
:1035900080F800135DF804FB0023E5E700F00F005E
:1035A0000901C9B2024B1954F4E700BF00ED00E075
:1035B00014ED00E0002807DB00F01F0240090123A2
:1035C0009340024A42F82030704700BF00E100E01B
:1035D0007047000090F83D30DBB2012B27D1022369
:1035E00080F83D300268D36843F00103D36003687C
:1035F000114A934210D0B3F1804F0DD0A2F594320E
:10360000934209D002F58062934205D01A6842F0D5
:1036100001021A60002070479A6802F00702062A29
:1036200007D01A6842F001021A600020704701209A
:1036300070470020704700BF002C01407047704762
:103640007047704710B5044603681A6912F0020FFC
:1036500011D0DA6812F0020F0DD06FF002021A6179
:103660000123037703689B6913F0030F70D0FFF702
:10367000E6FF0023237723681A6912F0040F12D0A3
:10368000DA6812F0040F0ED06FF004021A61022300
:10369000237723689B6913F4407F5FD02046FFF7B0
:1036A000CEFF0023237723681A6912F0080F12D087
:1036B000DA6812F0080F0ED06FF008021A610423C6
:1036C00023772368DB6913F0030F4ED02046FFF702
:1036D000B6FF0023237723681A6912F0100F12D067
:1036E000DA6812F0100F0ED06FF010021A61082382
:1036F00023772368DB6913F4407F3DD02046FFF732
:103700009EFF0023237723681A6912F0010F03D06C
:10371000DA6812F0010F36D123681A6912F0800FAF
:1037200003D0DA6812F0800F34D123681A6912F0DE
:10373000400F03D0DA6812F0400F32D123681A69C3
:1037400012F0200F03D0DA6812F0200F30D110BD34
:10375000FFF774FF2046FFF773FF8AE72046FFF765
:103760006DFF2046FFF76CFF9BE72046FFF766FFE3
:103770002046FFF765FFACE72046FFF75FFF2046D6
:10378000FFF75EFFBDE76FF001021A612046FDF70B
:1037900031FBC1E76FF080021A61204600F077F834
:1037A000C3E76FF040021A612046FFF74AFFC5E702
:1037B0006FF020021A61204600F068F8C7E70000A9
:1037C00003681B4A90420AD0B0F1804F07D0A2F59F
:1037D0009432904203D002F58062904203D123F0EC
:1037E00070034A681343124A90420AD0B0F1804FE6
:1037F00007D0A2F59432904203D002F58062904245
:1038000003D123F44073CA68134323F080034A6949
:10381000134303608B68C3620B688362044B984256
:1038200002D00123436170470B690363F9E700BFCE
:10383000002C014040B310B5044690F83D30F3B180
:10384000022384F83D30214651F8040BFFF7B8FFFE
:10385000012384F8463084F83E3084F83F3084F801
:10386000403084F8413084F8423084F8433084F8A2
:10387000443084F8453084F83D30002010BD80F895
:103880003C30FFF7A5FEDBE701207047704770472B
:103890000268D36823F49073D3600268536923F0FD
:1038A00001035361036B012B05D0202380F83E30C8
:1038B0000023036370470268D36823F01003D360CA
:1038C000F3E790F83D30DBB2212B01D002207047A6
:1038D0008368B3F5805F17D0036A5A1C02621A78B6
:1038E00003685A60C38C9BB2013B9BB2C3844BB943
:1038F0000268D36823F08003D3600268D36843F082
:103900004003D360002070470369002BE4D1036AB1
:103910001B880268C3F308035360036A023303621F
:10392000E0E7000010B504460268136923F4405331
:10393000C1680B43136183680269134342691A43E8
:103940000168CB6823F4B05323F00C031343CB601E
:103950000268536923F4407381690B435361026821
:10396000134B9A4220D0FFF7F5FB024602EB82028E
:1039700002EB820263689B00B2FBF3F20D48A0FBEE
:1039800002314909642303FB11231B013233A0FBDD
:1039900003235B0903F0F00202EB011203F00F03B3
:1039A000216813448B6010BDFFF7E4FB0246DDE79E
:1039B000003801401F85EB5158B310B5044690F80C
:1039C0003D300BB3242384F83D302268D36823F4C0
:1039D0000053D3602046FFF7A5FF2268136923F444
:1039E000904313612268536923F02A0353612268CC
:1039F000D36843F40053D36000202064202384F86C
:103A00003D3084F83E3010BD80F83C30FDF72CFB93
:103A1000D8E70120704790F83D30DBB2202B19D158
:103A2000D1B1DAB190F83C30012B19D0012380F8E4
:103A30003C3001628284C28400230364212280F826
:103A40003D2080F83C300168CA6842F08002CA60BC
:103A500018467047022070470120704701207047C8
:103A600002207047704708B50168CA6822F040021A
:103A7000CA60202280F83D20FFF7F4FF002008BD37
:103A8000704708B5406A0023C385C384FFF7F8FF79
:103A900008BD704790F83E30DBB2222B60D18368BE
:103AA000B3F5805F46D0826AB3F5805F04D0002B07
:103AB0004DD10369002B4AD103685B681370836A98
:103AC00001338362C38D9BB2013B9BB2C385002B44
:103AD00048D100B583B00268D36823F02003D360D7
:103AE0000268D36823F48073D3600268536923F0BB
:103AF00001035361202380F83E30036B012B2CD14E
:103B0000002303630268D36823F01003D3600368C3
:103B10001A6812F0100F06D0002201921A68019262
:103B20005B680193019B818DFFF7B3FF002003B019
:103B30005DF804FB0269002AB5D1826A03685B68FC
:103B4000C3F308031380836A02338362BAE703680E
:103B50005B6803F07F031370B1E7FDF741F9E5E718
:103B6000022070470020704730B583B004460268D9
:103B70001368D068516913F00F0505D113F0200FB9
:103B800002D010F0200F19D12DB111F0010119D17F
:103B900010F4907F16D1216B012975D013F0800F9E
:103BA00003D010F0800F40F0D78013F0400F03D007
:103BB00010F0400F40F0D48003B030BD2046FFF736
:103BC00069FFF9E713F0010F06D010F4807F03D0EE
:103BD000226C42F00102226413F0040F04D019B1E8
:103BE000226C42F00202226413F0020F04D019B1D9
:103BF000226C42F00402226413F0080F07D010F088
:103C0000200F00D119B1226C42F008022264226C0C
:103C1000002AD1D013F0200F02D010F0200F21D1B4
:103C200023685B6903F04003226C12F0080F00D197
:103C300023B32046FFF72CFE23685A6912F0400F89
:103C400018D05A6922F040025A61A36B73B1464AF8
:103C50005A63A06BFFF714FC0028ADD0A06B436B38
:103C60009847A9E72046FFF715FFD9E72046FFF759
:103C700007FFA1E72046FFF703FF9DE72046FFF778
:103C8000FFFE0023236497E713F0100F86D010F097
:103C9000100F83D00023019313680193536801939D
:103CA000019B536913F0400F32D0A16B0B685B6826
:103CB0009BB2002B80D0A08D98427FF67DAFE3852C
:103CC0008B69202B08D1A18DE38D9BB2C91A89B2D3
:103CD0002046FFF7DEFE6FE7D36823F48073D360DE
:103CE0002268536923F0010353612268536923F06A
:103CF00040035361202384F83E300023236322686D
:103D0000D36823F01003D360A06BFFF797FBDAE7CB
:103D1000A18DE38D9BB2C91A89B2E38D9BB2002BB2
:103D20003FF44AAF00293FF447AFD36823F49073C0
:103D3000D3602268536923F001035361202384F880
:103D40003E30002323632268D36823F01003D3603E
:103D50002046FFF79EFE2FE72046FFF7B2FD2BE738
:103D60002046FFF780FE27E7833A0008034681627A
:103D70008285C28500201864222283F83E2083F8C1
:103D80003C001968CA6842F48072CA6019684A69BE
:103D900042F001024A611A68D36843F02003D360FD
:103DA000704708B590F83E30DBB2202B0DD171B1D1
:103DB0007AB190F83C30012B0DD0012380F83C30D3
:103DC00000230363FFF7D2FF00E0022008BD0120BB
:103DD000FCE70120FAE70220F8E7704708B5044B3A
:103DE0001B78012B00D008BD024800F063FBFAE706
:103DF000D9020020E002002030B583B08F4B904AFA
:103E00001A60904A5A609A608F4ADA6040F25B7298
:103E10001A828E4A5A618E49D9619A6178221A842F
:103E2000642001F02BFF01228A498B48FFF7B9FF7C
:103E30004FF4FA6289498A4802F006FD01283CD015
:103E40004FF47A6001F01AFF864B1B78012B46D0A5
:103E500002F0B8FD834B1B78012B44D07F4C4FF40C
:103E60007A722146804802F0EFFC4FF47A722146C4
:103E70007E4802F0E9FC4FF47A7221467C4802F059
:103E8000E3FC4FF47A7221467A4802F0DDFC754B70
:103E90001B78012B2BD04FF47A71774B186801F007
:103EA0006DFF7649764802F021FE4FF4FA6001F08A
:103EB000E5FEFEF737FE044689E0724C01224FF41E
:103EC00080712046FFF79DFA4FF4FA6001F0D6FEAC
:103ED00000224FF480712046FFF793FAB0E76A485A
:103EE00000F0E8FAB4E7684800F0E4FAB6E766489C
:103EF00000F0E0FACFE74FF47A726449644802F0C8
:103F0000A3FC00286BD1C82001F0B8FE614D284603
:103F1000FCF71EF9504C82B229462046FFF77BFD84
:103F2000C82001F0ABFE23681A225A605A4C4FF4A5
:103F300000512046FFF76BFA41F2883001F09EFEF7
:103F400056494F4802F0D2FD4FF4FA6001F096FE58
:103F50005349544802F0CAFD4FF4FA6001F08EFE56
:103F60004FF400512046FFF752FA3C4D4FF4FA62ED
:103F700029464D4802F068FC47F2305001F07EFEC1
:103F80004FF47A722946494802F05EFC4FF4005122
:103F90002046FFF73CFAFEF7C5FD0446444B0022DD
:103FA0001A701CE03549364802F0A0FDFEF7BAFD54
:103FB00004461BE002F006FD3049314802F096FD50
:103FC000FEF7B0FD04463B4B1B78012B1FD04FF48E
:103FD0007A7001F053FE364B1B78012B8BD0FEF725
:103FE000A1FD001B47F22F539842DBD8134B9B7C5B
:103FF000002BDFD0304B1B78002BDBD02E4B5B78B7
:10400000002BD7D02C4B9B78002BDCD1D2E7294B4F
:1040100000221A70294B1A78294901A802F0D4FE0F
:1040200001A9284802F062FD4FF400511A48FFF739
:10403000EEF9FEF777FD0446C9E700BF1C0100203A
:10404000707900087C79000880790008FC7B000802
:10405000907900086C1D0020280200209479000847
:104060009C790008D9020020A4790008B0790008E2
:10407000BC790008CC790008D0020020E47900085F
:10408000E879000800080140E0020020107A0008EA
:10409000147A000828000020001001402C7A000843
:1040A0000C000020307A00085C7A0008707A000862
:1040B000DB020020DA020020D41B0020D8020020FE
:1040C000E8780008787A00082DE9F04395B04FF4BD
:1040D0007A7001F0D3FD884802F04EFD0128FAD035
:1040E000864B01221A7096E0854B01221A704FF41C
:1040F000005100F1804000F58830FFF788F9D2E0E8
:10410000804E31467C4802F087FDD6E90601FCF777
:1041100093FC14AB03EB840343F8500C4FF4FA7098
:1041200001F0ACFD0134E4B2132CE9D92C46002691
:1041300001E00134E4B2132C16D814AB03EB840372
:1041400053F8501C14AB03EB860353F8500CFCF7E8
:10415000C7FCFCF769F95EA3D3E90023FCF742FC36
:104160000028E6D02646E4E714AB03EB860353F8B9
:10417000500CFCF759F98046894657A3D3E9002330
:10418000FCF73AFC20B1604B00221A70002421E0B9
:1041900053A3D3E9002340464946FCF70FFC08B17E
:1041A0000A2E07D950A3D3E9002340464946FCF71D
:1041B00005FC18B1544B03221A70E7E7092E03D807
:1041C000514B01221A70E1E74F4B02221A70DDE7D2
:1041D0000134E4B2132C0CD84FF07A5114AB03EB3A
:1041E000840353F8500CFCF7F1FD0028F0D00025B3
:1041F000EEE715B1444B04221A70444B01221A70A9
:104200004FF400514248FFF702F9424800F052F9DA
:10421000142001F033FD3B4C2146374802F0FCFCF2
:10422000D4E9020102460B46FCF756F906460F4652
:10423000D4E9040102460B46FCF74EF902460B4650
:1042400030463946FBF792FF06460F46D4E9060191
:1042500002460B46FCF740F902460B46304639460B
:10426000FBF784FF03F032FAFCF7E6FB04462A4B27
:1042700018600021FCF782FD10B1204B00221A705B
:104280002046FCF7D1F81AA3D3E90023FCF796FBEC
:1042900048B11B4B1B7833B900212046FCF76EFD5B
:1042A00000283FF421AF1D4B1D78012DADD14FF4F7
:1042B00000511748FFF7ABF80F4802F05DFC0128EA
:1042C000FAD00024154B1C702EE700BFAFF300801E
:1042D000B81E85EB51B89E3FCDCCCCCCCCCCEC3FBE
:1042E000333333333333E33F9A9999999999D93FCB
:1042F0009A9999999999C93FD4010020D90200202F
:10430000DB02002070020020D8020020DA02002028
:1043100000100140E0020020D4020020DC02002056
:1043200008B50B4B002201210A4801F0C9FC0A4BD9
:1043300018600A4A00210A4801F02AFC094B18605B
:10434000094A0021094801F023FC094B186008BD07
:10435000087B0008DD3D0008D0020020C07A00087C
:10436000F93D0008C8020020E47A0008C9400008AE
:10437000CC02002008B50E4B1B7803B108BD4FF4EA
:1043800080610C48FFF736F80028F7D1002300E0E1
:104390000133094A9342FBDD4FF480610548FFF782
:1043A00029F80028EAD1024B01221A70E6E700BF83
:1043B000DC020020000C01409F86010008B5074880
:1043C000074B03600623436040F6B833836000F078
:1043D00045F800B908BDFCF719FDFBE7E002002035
:1043E0000030004000B589B0014600221920FFF7D7
:1043F000A9F81920FFF7DEF8144B9A6942F400621D
:104400009A619B6903F400630193019B02A903A8CD
:10441000FEF7C0FEFEF7AEFE0D4BA3FB00239B0C88
:10442000013B0C480C4A026040F2E732C260436034
:10443000002303618360FFF7FDF918B1012009B083
:104440005DF804FB0348FFF7C5F8F8E700100240E9
:1044500083DE1B43EC020020002C014040B338B542
:10446000044603684CF6CC421A60036845F2555284
:104470001A60036842685A60036882689A60FEF7AF
:1044800051FB05462368DA6812F0030F0BD0FEF7E4
:1044900049FB401B2728F5D92368DB6813F0030F7D
:1044A000F0D0032003E04AF6AA221A60002038BDAB
:1044B0000120704703684AF6AA221A60002070475C
:1044C00000F1080343604FF0FF328260C360036174
:1044D00000230360704700230361704743684B600B
:1044E0009A688A60516099600861036801330360CB
:1044F000704730B40D68B5F1FF3F11D000F10803EB
:104500001C465B681A68AA42FAD963684B609960D6
:104510008C606160086103680133036030BC7047E0
:104520000469F2E70369416882688A604168516002
:104530005A68824206D0002202611A68013A1A6063
:104540001868704782685A60F5E710B5044601F0B4
:10455000C1FDA26BE36B9A4204D0002401F0DCFDA4
:10456000204610BD0124F9E710B5044601F0B2FD64
:10457000A36B23B9012401F0CFFD204610BD002418
:10458000F9E770B504461546866B026C5AB90368A4
:104590001BB100200136A66370BD406800F0CEFF5D
:1045A00000236360F6E76DB9806802F0C3FB226CFC
:1045B000A3681344A3606268934219D32368A3607D
:1045C0002846E7E7C06802F0B5FB226C5142E36879
:1045D0009B1AE3602268934202D263680B44E36053
:1045E000022D01D00020D5E726B1013E0020D1E701
:1045F0002846CFE70020CDE708B50346026C62B13C
:104600000846D9681144D960D3F804C0614501D384
:104610001968D960D96802F08DFB08BD38B5054628
:1046200001F058FD95F8454064B201E0013C64B2E8
:10463000002C0ADD6B6A43B105F1240000F0D4FEC2
:104640000028F3D000F064FFF0E7FF2385F8453041
:1046500001F062FD01F03EFD95F8444064B201E0D6
:10466000013C64B2002C0ADD2B6943B105F1100056
:1046700000F0BAFE0028F3D000F04AFFF0E7FF2375
:1046800085F8443001F048FD38BD38B5E0B10D463D
:10469000044601F01FFD2368E26B216C01FB023030
:1046A00060600020A063A360013A02FB0133E36075
:1046B000FF2384F8443084F84530FDB9236963B999
:1046C00001F02AFD012038BD4FF0500383F311881B
:1046D000BFF36F8FBFF34F8FFEE704F1100000F0C0
:1046E00083FE0028ECD04FF0E0234FF08052C3F857
:1046F000042DBFF34F8FBFF36F8FE1E704F110007C
:10470000FFF7DEFE04F12400FFF7DAFED8E738B544
:104710001D46049C0B4649B92460E06323640121D3
:104720002046FFF7B2FF84F84C5038BD2260F4E712
:1047300040B94FF0500383F31188BFF36F8FBFF37D
:104740004F8FFEE710B584B01C46844653B192B13A
:1047500089B94FF0500383F31188BFF36F8FBFF314
:104760004F8FFEE74FF0500383F31188BFF36F8F35
:10477000BFF34F8FFEE76AB150230393039B502B87
:1047800013D04FF0500383F31188BFF36F8FBFF343
:104790004F8FFEE70029EFD04FF0500383F31188CD
:1047A000BFF36F8FBFF34F8FFEE7012384F84630CE
:1047B00000949DF818306046FFF7A9FF204604B02A
:1047C00010BDF0B585B0019288B10F461D46044674
:1047D000B1B1022D20D1E36B012B1DD04FF050035E
:1047E00083F31188BFF36F8FBFF34F8FFEE74FF056
:1047F000500383F31188BFF36F8FBFF34F8FFEE732
:10480000036C002BE5D04FF0500383F31188BFF306
:104810006F8FBFF34F8FFEE700F080FE064658B95A
:10482000019B002B48D04FF0500383F31188BFF356
:104830006F8FBFF34F8FFEE700263DE02A463946D3
:104840002046FFF79EFE636A7BB948B14FF0E02334
:104850004FF08052C3F8042DBFF34F8FBFF36F8F1B
:1048600001F05AFC012005B0F0BD04F1240000F075
:10487000BBFD0028F4D04FF0E0234FF08052C3F886
:10488000042DBFF34F8FBFF36F8FE9E701F044FCB6
:104890000020E8E702A800F0EDFD012619E0002362
:1048A00084F8443021E0002384F8453023E020469A
:1048B000FFF7B4FE00F078FC01F00CFCA26BE36B98
:1048C0009A42BBD3022DB9D0019B002BDED0002E23
:1048D000E0D001F021FC00F0CDFB01F0FBFB94F8EF
:1048E000442052B2B2F1FF3FD9D094F8452052B2E1
:1048F000B2F1FF3FD7D001F00FFC01A902A800F0F0
:10490000C5FDD8B92046FFF720FE0028CFD0019979
:1049100004F1100000F034FD2046FFF77FFE00F0A8
:1049200043FC0028C8D14FF0E0234FF08052C3F879
:10493000042DBFF34F8FBFF36F8FBDE72046FFF706
:104940006DFE00F031FC00208DE72DE9F84390B1B9
:104950000F4616461C460546B1B1022C20D1EB6B22
:10496000012B1DD04FF0500383F31188BFF36F8FDD
:10497000BFF34F8FFEE74FF0500383F31188BFF36F
:104980006F8FBFF34F8FFEE7036C002BE5D04FF026
:10499000500383F31188BFF36F8FBFF34F8FFEE790
:1049A00001F082FCEFF311894FF0500383F311887B
:1049B000BFF36F8FBFF34F8FAA6BEB6B9A4206D397
:1049C000022C04D0002089F31188BDE8F88395F803
:1049D00045804FFA88F8224639462846FFF7D1FD30
:1049E000B8F1FF3F06D008F101035BB285F845300E
:1049F0000120E8E76B6A0BB90120E4E705F1240028
:104A000000F0F2FC18B126B101203060DBE7012094
:104A1000D9E70120D7E7F0B585B0019290B10F46F4
:104A20000446C1B100F07AFD064600BB019B002B95
:104A30005ED04FF0500383F31188BFF36F8FBFF345
:104A40004F8FFEE74FF0500383F31188BFF36F8F52
:104A5000BFF34F8FFEE7036C002BE3D04FF0500302
:104A600083F31188BFF36F8FBFF34F8FFEE70026EC
:104A70003EE039462046FFF7BFFD013DA5632369AF
:104A800023B901F049FB012005B0F0BD04F110008D
:104A900000F0AAFC0028F4D04FF0E0234FF0805241
:104AA000C3F8042DBFF34F8FBFF36F8FE9E701F019
:104AB00033FB0020E8E702A800F0DCFC012621E03F
:104AC000002384F8443029E0002384F845302BE0AB
:104AD0002046FFF7A3FD00F067FB09E02046FFF743
:104AE0009DFD00F061FB2046FFF73EFD00283FD111
:104AF00001F0F0FAA56B002DBBD1019B002BD6D0A5
:104B0000002ED8D001F008FB00F0B4FA01F0E2FA70
:104B100094F844305BB2B3F1FF3FD1D094F8453004
:104B20005BB2B3F1FF3FCFD001F0F6FA01A902A8C2
:104B300000F0ACFC0028D1D12046FFF715FD00287D
:104B4000C6D0019904F1240000F01AFC2046FFF7BA
:104B500065FD00F029FB0028CAD14FF0E0234FF09B
:104B60008052C3F8042DBFF34F8FBFF36F8FBFE7A1
:104B7000002089E70023072B0CD8074A52F833207E
:104B80000AB10133F7E7044A42F8331002EBC303DA
:104B900058607047704700BF3403002070B504466A
:104BA0000D46164601F096FA94F844305BB2B3F124
:104BB000FF3F0DD094F845305BB2B3F1FF3F0BD00F
:104BC00001F0AAFAA36B5BB12046FFF727FD70BD89
:104BD000002384F84430EDE7002384F84530EFE704
:104BE0003246294604F1240000F0E2FBECE7000025
:104BF000084B1B681B6823B9074B4FF0FF321A6044
:104C00007047044B1B68DB68DB685A68024B1A600C
:104C1000704700BF78030020240800202DE9F047EA
:104C200080460C4617469946089EDDF824A00A9D4A
:104C30009200A521286B02F08BF82B6B07F18042C4
:104C4000013A03EB820727F007074FF0000CBCF195
:104C5000630F0BD814F80C2005EB0C0383F83420F9
:104C600014F80C3013B10CF1010CF0E7002385F8B7
:104C70009730372E00D93726EE62C5F8A0600024A1
:104C8000C5F8A440281DFFF726FC05F11800FFF722
:104C900022FC2D61C6F13806AE616D62C5F8A840F0
:104CA00085F8AC404A464146384601F0EFF92860A5
:104CB000BAF1000F01D0CAF80050BDE8F08700003B
:104CC00038B5002407E004EB840293000E48184432
:104CD000FFF7F6FB0134372CF5D90C4D2846FFF7CA
:104CE000EFFB0B4C2046FFF7EBFB0A48FFF7E8FB16
:104CF0000948FFF7E5FB0948FFF7E2FB084B1D6099
:104D0000084B1C6038BD00BF80030020F80700205E
:104D10000C0800202C08002058080020440800201F
:104D2000780300207C03002010B5044601F0D2F97E
:104D3000224A136801331360214B1B685BB1214B7E
:104D40001B686BB91E4B1B68DA6AE36A9A4207D884
:104D50001B4B1C6004E01A4B1C601368012B2AD00B
:104D6000194A136801331360C4F89830E06A174B8E
:104D70001B68984201D9154B186000EB8000211D7B
:104D8000134B03EB8000FFF7A9FB01F0C5F90D4BB6
:104D90001B687BB10A4B1B68DA6AE36A9A4209D244
:104DA0004FF0E0234FF08052C3F8042DBFF34F8F34
:104DB000BFF36F8F10BDFFF783FFD1E7E00700203F
:104DC0007403002040080020F0070020F4070020B2
:104DD0008003002010B5044690F8AD3063B1012B7C
:104DE00011D0022B0ED04FF0500383F31188BFF384
:104DF0006F8FBFF34F8FFEE7006B01F0DFF82046A7
:104E000001F0DCF810BD01F0D9F8FBE70F4B1B688F
:104E1000D3B110B501F05EF90D4BDB68DC68201DE5
:104E2000FFF780FB0B4A1368013B1360074A1368C6
:104E3000013B136001F070F92046FFF7CBFF034BF5
:104E40001B68002BE6D110BD704700BFE4070020AF
:104E500058080020E007002008B5FFF7D7FF074BF0
:104E60001B68012BF9D94FF0E0234FF08052C3F8B3
:104E7000042DBFF34F8FBFF36F8FEEE78003002049
:104E800070B504460D46174B1E68174B1868043062
:104E9000FFF748FBB4F1FF3F0DD03444124B1B68C1
:104EA0005C60A64210D9114B18680F4B1968043189
:104EB000FFF71FFB70BD002DEFD00B4B19680431BD
:104EC0000B48FFF70BFBF5E70A4B1868064B196810
:104ED0000431FFF70EFB084B1B68A342EAD9064BCF
:104EE0001C60E7E76C080020740300207C030020AE
:104EF00044080020780300202408002030B587B043
:104F00000B9C7CB10C9DB5B1B0250495049DB02DD2
:104F10001AD04FF0500383F31188BFF36F8FBFF3A4
:104F20004F8FFEE74FF0500383F31188BFF36F8F6D
:104F3000BFF34F8FFEE74FF0500383F31188BFF3A9
:104F40006F8FBFF34F8FFEE70C9D2C63022485F813
:104F5000AD4000240394029505AC01940A9C009492
:104F6000FFF75CFE0C98FFF7DFFE059807B030BD39
:104F70002DE9F04385B00746884614461E4690004A
:104F800000F0A4FF00B38146B02000F09FFF05466B
:104F9000B0B1C0F83090E5B1002385F8AD3003938F
:104FA00002950D9B01930C9B00933346224641468C
:104FB0003846FFF733FE2846FFF7B6FE012005E02E
:104FC000484600F0FBFFE6E74FF0FF3005B0BDE8D4
:104FD000F0834FF0FF30F9E710B588B00024059456
:104FE000069407AA06A905A800F0F6FE059B029301
:104FF000069B019300942346079A18491848FFF727
:105000007DFF184B186040B100F070FB012806D0FE
:10501000B0F1FF3F18D008B010BD0020F6E74FF008
:10502000500383F31188BFF36F8FBFF34F8F0E4B85
:105030004FF0FF321A600D4B01221A600C4B002218
:105040001A6001F0D1F8E6E74FF0500383F31188BE
:10505000BFF36F8FBFF34F8FFEE700BF187B0008D1
:10506000594E000820080020240800204008002095
:105070006C080020024A136801331360704700BFB8
:10508000EC070020014B1868704700BF6C08002037
:10509000F8B53A4B1B68002B64D1394B1D680135BC
:1050A0001D60C5B9374B1B681B6843B14FF05003F7
:1050B00083F31188BFF36F8FBFF34F8FFEE7314A41
:1050C0001168314B186810601960304A1368013359
:1050D0001360FFF78DFD2E4B1B68AB4238D90027BC
:1050E0002C4B1B68DB6A03EB83039A002A4B9B580B
:1050F000012B3CD901273AE00127224B1B681B6892
:1051000043B3204B1B68DB68DC6863689D4226D391
:10511000261D3046FFF706FAA36A1BB104F11800FA
:10512000FFF700FAE36A1D4A1268934201D91B4A4D
:10513000136003EB83039A00314617481044FFF7CE
:10514000CDF9E26A134B1B68DB6A9A42D4D2D4E7EA
:105150000027D2E70E4B4FF0FF321A60C0E70C4A2F
:105160001360BDE70E4A13680133136000270D4B2F
:105170001B6803B101273846F8BD00BFEC070020CB
:105180006C080020780300207C0300202808002001
:10519000240800207403002080030020F40700206E
:1051A000E80700207008002038B5354B1B6843B96C
:1051B0004FF0500383F31188BFF36F8FBFF34F8F0E
:1051C000FEE700F087FF2E4B1A68013A1A601B6851
:1051D000002B4FD12B4B1B680BB900244BE0002454
:1051E000294B1B681BB3284BDB68DC6804F11800F3
:1051F000FFF798F9251D2846FFF794F9E06A234B3D
:105200001B68984201D9214B186000EB80002946A9
:105210001F4B03EB8000FFF761F9E26A1D4B1B682F
:10522000DB6A9A42DCD31C4B01221A60D8E70CB12E
:10523000FFF7DEFC194B1C6884B9174B1C68D4B10E
:105240004FF0E0234FF08052C3F8042DBFF34F8F8F
:10525000BFF36F8F01240EE0013C07D0FFF718FF6A
:105260000028F9D00C4B01221A60F5E70B4B002205
:105270001A60E2E7002400F04FFF204638BD00BF6F
:10528000EC070020E00700202C080020F407002095
:10529000800300207403002070080020E80700202D
:1052A00010B5A8B10446104B1B6843B14FF0500332
:1052B00083F31188BFF36F8FBFF34F8FFEE7FFF7C4
:1052C000D9FE00212046FFF7DBFDFFF76DFF48B94F
:1052D0004FF0E0234FF08052C3F8042DBFF34F8FFF
:1052E000BFF36F8F10BD00BFEC0700201F4B1B6882
:1052F0001BB11F4B01221A6070471D4B00221A6020
:105300001C4B1B6803EB83018A001B498A585AB95E
:105310000BB1013BF6E74FF0500383F31188BFF365
:105320006F8FBFF34F8FFEE703EB830082000A44C9
:1053300050684068506003EB830C4FEA8C020832DF
:10534000114488420BD003EB830291000A4A0A44BD
:105350005268D168094A1160064A13607047406874
:1053600062469100044A0A445060ECE7EC070020D2
:1053700070080020F4070020800300207403002040
:1053800058B110B50C46094A11681831FFF7B1F849
:1053900001212046FFF774FD10BD4FF0500383F349
:1053A0001188BFF36F8FBFF34F8FFEE774030020A8
:1053B00038B570B10D4614460A4A11681831FFF726
:1053C0008DF80CB14FF0FF3521462846FFF758FD08
:1053D00038BD4FF0500383F31188BFF36F8FBFF3D5
:1053E0004F8FFEE77403002038B5C368DC6824B330
:1053F00004F118052846FFF795F8184B1B682BBBDE
:10540000251D2846FFF78EF8E06A154B1B68984269
:1054100001D9134B186000EB80002946114B03EBB8
:105420008000FFF75BF8E26A0F4B1B68DB6A9A4269
:1054300011D901200D4B186038BD4FF0500383F394
:105440001188BFF36F8FBFF34F8FFEE729460848DF
:10545000FFF744F8E7E70020EEE700BFEC07002085
:10546000F40700208003002074030020700800204F
:105470002C080020034B1B680360034B1B68436030
:10548000704700BF280800206C080020D8B170B514
:105490000C46054601B300F01DFE1B4B19686B68F6
:1054A000C81A2268B2F1FF3F27D0184E3668D5F8E7
:1054B00000C0B44501D08B4224D9824215D80023C4
:1054C000236001241AE04FF0500383F31188BFF3E7
:1054D0006F8FBFF34F8FFEE74FF0500383F31188B8
:1054E000BFF36F8FBFF34F8FFEE75B1A1344236048
:1054F0002846FFF7BFFF002400E0002400F00CFE68
:10550000204670BD0124F9E76C080020280800201F
:10551000014B01221A60704770080020054B1B6880
:1055200033B1054B1B680BB1002070470220704758
:105530000120704740080020EC07002000283FD0E1
:1055400038B50446204B1B68834208D04FF0500307
:1055500083F31188BFF36F8FBFF34F8FFEE7D0F84F
:10556000A43043B94FF0500383F31188BFF36F8F1A
:10557000BFF34F8FFEE7013BC0F8A430C16AD0F8FB
:10558000A02091421ED00BB1002038BD051D284639
:10559000FEF7C8FFD4F8A000E062C0F13803A361B1
:1055A0000A4B1B68984201D9084B186000EB800039
:1055B0002946074B03EB8000FEF790FF0120E4E74C
:1055C000002070470020E0E774030020F40700206B
:1055D00080030020064B1A681368B3FA83F35B0953
:1055E000036013B9D368186870470020704700BF84
:1055F0007408002008B54160006191420CD8D21AAD
:1056000083699A4201D3012008BD011D094B186826
:10561000FEF76FFF0020F7E79A4201D2994206D2C7
:10562000011D054B1868FEF764FF0020ECE7012020
:10563000EAE700BF780800207408002030B583B086
:1056400000F048FD114B1B681BB100F065FD03B075
:1056500030BD0F4D2846FEF733FF0E4C2046FEF7B7
:105660002FFF0D4B1D600D4B1C60002300930C4B56
:105670000C4A10210A20FFF75BF8044B1860002841
:10568000E3D00949FFF776FADFE700BF9809002069
:105690001C09002030090020740800207808002030
:1056A000480900207C080020207B00082DE9F041FB
:1056B000079F41B94FF0500383F31188BFF36F8FF9
:1056C000BFF34F8FFEE7064615461C4688465FB17E
:1056D000FFF7B4FF3E60C7F81880FD613C62069B8F
:1056E0007B62381DFEF7F7FEBDE8F08110B588B08B
:1056F000FFF7A4FF124B1B68CBB10024059406945E
:1057000007AA06A905A800F073FB059B0293069B58
:105710000193022300932346079A0A490A48FFF798
:10572000EDFB0A4B186010B1012008B010BD4FF01E
:10573000500383F31188BFF36F8FBFF34F8FFEE7E2
:1057400098090020287B0008B55A00089C09002011
:105750002DE9F04182B00446884615461E463020A9
:1057600000F0B4FB074658B10190089B0093334604
:105770002A4641462046FFF799FF002387F82C3040
:10578000384602B0BDE8F08110B584B030240394EF
:10579000039C302C08D04FF0500383F31188BFF3E3
:1057A0006F8FBFF34F8FFEE7079C64B1079C019496
:1057B000069C0094FFF77AFF0123079A82F82C30A9
:1057C000104604B010BD4FF0500383F31188BFF3AF
:1057D0006F8FBFF34F8FFEE7B8B19C460346184862
:1057E000006858B300B585B0009101920293052975
:1057F0001CDCFFF793FE022810D000231A466946EE
:105800000F480068FEF7DDFF15E04FF0500383F30B
:105810001188BFF36F8FBFF34F8FFEE70023069A07
:10582000694607480068FEF7CCFF04E000236246A3
:105830006946FFF78AF805B05DF804FB0020704761
:105840009809002070B582B01A4B1B681A6852B3D1
:10585000DB681E68DC68251D2846FEF763FE636A68
:1058600020469847E369012BEED1A36933449E4259
:1058700007D26360246129460E4B1868FEF739FE93
:10588000E2E7002100910B4632462046FFF7A4FFD5
:105890000028D9D14FF0500383F31188BFF36F8FE5
:1058A000BFF34F8FFEE7044A106802490860136097
:1058B00002B070BD740800207808002038B5054695
:1058C000FFF7E0FB0446074B1B68834205D8002323
:1058D0002B60044B1C60204638BDFFF7B3FF01234B
:1058E0002B60F6E74409002070B582B006460D46ED
:1058F00014490968C968CC68201DFEF713FEE169E8
:10590000012904D0636A2046984702B070BDA1699E
:1059100033462A4631442046FFF76CFE0028F1D07A
:10592000002100910B4632462046FFF755FF002824
:10593000E8D14FF0500383F31188BFF36F8FBFF3AB
:105940004F8FFEE77408002070B582B006460C4603
:10595000FFF790FB01A8FFF7B1FF019B2BBB0546AA
:105960000CB9B0421AD22CB1124B1B681C68B4FAA5
:1059700084F464092246711B0F4B1868FFF70EF977
:10598000FFF712FC98B94FF0E0234FF08052C3F8B4
:10599000042DBFF34F8FBFF36F8F08E0FFF704FCB8
:1059A00029463046FFF7A0FF01E0FFF7FDFB02B0FC
:1059B00070BD00BF780800209809002010B588B09D
:1059C00002E0049B002B0FDA002204A9384B186870
:1059D000FFF721F8002869D0049B002BF1DA079922
:1059E0000698059B9847ECE7069C636913B1201D58
:1059F000FEF798FD03A8FFF761FF049B092BE3D88E
:105A000001A252F823F000BF315A0008315A0008B1
:105A1000315A0008C9590008775A00089D5A0008F1
:105A2000315A0008315A0008C9590008775A00084D
:105A3000059BA169024619442046FFF7DBFD0028BB
:105A4000C2D0636A20469847E369012BBCD1A269A2
:105A5000002100910B46059802442046FFF7BCFE4A
:105A60000028B1D14FF0500383F31188BFF36F8F3B
:105A7000BFF34F8FFEE70599A16131B1034602469E
:105A800001442046FFF7B6FD9EE74FF0500383F335
:105A90001188BFF36F8FBFF34F8FFEE794F82C3060
:105AA000002B91D1204600F089FA8DE708B010BD97
:105AB0009809002000B583B001A8FFF78BFD01997C
:105AC000FFF742FFFFF77AFFF6E740B110B5044653
:105AD00000F000FB246A00F01FFB204610BD4FF0D1
